:020000040800F2
:10000000384400208102000813120008C7100008BD
:1000100011120008B1030008591500080000000083
:10002000000000000000000000000000C101000806
:10003000B3030008000000001D0200081D120008A4
:100040009B0200089B0200089B0200089B0200081C
:100050009B0200089B0200089B0200089B0200080C
:100060009B0200089B0200089B0200089B020008FC
:100070009B0200089B0200089B0200089B020008EC
:100080009B0200089B0200089B0200089B020008DC
:100090009B0200089B0200089B0200089B020008CC
:1000A000F51200089B0200089B0200089B02000852
:1000B0009B0200089B0200089B0200089B020008AC
:1000C0009B0200089B0200089B0200089B0200089C
:1000D0009B0200089B0200089B0200089B0200088C
:1000E0009B0200089B0200089B0200089B0200087C
:1000F0009B0200089B0200089B0200089B0200086C
:100100009B0200089B0200089B0200089B0200085B
:100110009B0200089B0200089B02000801130008D4
:100120009B0200089B0200089B0200089B0200083B
:100130009B0200089B0200089B0200089B0200082B
:100140009B0200089B0200089B0200089B0200081B
:100150009B0200089B0200089B0200089B0200080B
:100160009B0200089B0200089B0200089B020008FB
:100170009B0200089B0200089B0200080000000090
:100180009B0200089B0200089B0200089B020008DB
:100190009B0200089B0200089B0200089B020008CB
:1001A0009B0200089B0200089B020008DFF80CD0AD
:1001B00000F0ECF80048004799150008384400208A
:1001C0002C4B19680868B0E8F04F80F30988BFF33A
:1001D0006F8F4FF0000080F311887047000000001F
:1001E00008480068006880F308884FF0000080F33A
:1001F000148862B661B6BFF34F8FBFF36F8F00DF15
:1002000000BF00BF08ED00E0DFF80C00016841F41A
:1002100070010160704700BF88ED00E0EFF30980D6
:10022000BFF36F8F134B1A681EF0100F08BF20ED3D
:10023000108A20E9F04F106009B44FF0500080F3AD
:100240001188BFF34F8FBFF36F8F01F03FFD4FF069
:10025000000080F3118809BC19680868B0E8F04F05
:100260001EF0100F08BFB0EC108A80F30988BFF3AE
:100270006F8F704714000020EFF305807047000077
:100280000648804706480047FEE7FEE7FEE7FEE730
:10029000FEE7FEE7FEE7FEE7FEE7FEE7D91200080D
:1002A000AD0100082DE9F05F0546002092469B460F
:1002B00088460646814640241BE02846414647467C
:1002C000224600F053F853465A46C01A914110D3C3
:1002D00011461846224600F03AF82D1A67EB01083D
:1002E0004F4622460120002100F031F817EB0009AB
:1002F0004E41201EA4F10104DFDC484631462A4667
:100300004346BDE8F09F40EA01039B0703D009E0A4
:1003100008C9121F08C0042AFAD203E011F8013BF1
:1003200000F8013B521EF9D27047D2B201E000F84A
:10033000012B491EFBD270470022F6E710B5134689
:100340000A4604461946FFF7F0FF204610BD202A52
:1003500004DB203A00FA02F1002070479140C2F11C
:10036000200320FA03F3194390407047202A04DB4E
:10037000203A21FA02F00021704721FA02F3D0401E
:10038000C2F120029140084319467047064C074DC0
:1003900006E0E06840F0010394E807009847103455
:1003A000AC42F6D3FFF706FF98200008B8200008FB
:1003B000FEE7704772B6FEE72DE9F84F00224FF0D6
:1003C000010803254FF00F0E0B6808FA02F42340D2
:1003D000A3426ED14E68012E05D0022E03D0112EFD
:1003E00001D0122E12D186684FEA420C05FA0CF7A2
:1003F000BE43CF6807FA0CF7374387604668A643C9
:100400000C79C4F30014944034434460C668570028
:1004100005FA07FC8C6826EA0C06BC403443C4602D
:100420004C68022C01D0122C13D1D40800EB8404A8
:10043000A346D4F8209054074FEAD46A0EFA0AF67D
:1004400029EA06090E6906FA0AF646EA0906CBF811
:10045000206004680E7924EA0C0406F00306BE400E
:10046000264306604C68E4006FD53B4C266846F492
:1004700080462660246822F0030604F48044009439
:10048000364C3444A446D4F808489607360F0EFA82
:1004900006F7BC43324FB84201D100272EE0314F5E
:1004A000B84201D1012729E02F4FB84202D10227DB
:1004B00024E04AE02D4FB84201D103271EE02C4F23
:1004C000B84201D1042719E02A4FB84201D10527CB
:1004D00014E0294FB84201D106270FE0274FB84258
:1004E00001D107270AE0264FB84201D1082705E0CD
:1004F000244FB84201D1092700E00A27B74027431B
:10050000CCF80878204E34684F689C43FF0300D530
:100510001C4334601C4E361D34684F689C43BF0337
:1005200000D51C433460184E083634684F689C432D
:10053000FF0200D51C433460134E0C3634684F68FC
:100540009C43BF0200D51C433460521C102AFFF4A8
:100550003BAFBDE8F88F0000443802400030014056
:10056000000002400004024000080240000C02406B
:10057000001002400014024000180240001C02401B
:100580000020024000240240003C01400AB1816189
:1005900070470904FBE700000148806870470000CD
:1005A000040000200248816802781144816070478D
:1005B000040000200B4810B5016841F4007101608F
:1005C000016841F480610160016841F4807101605B
:1005D000032000F08DF8002000F006F800F03EF84F
:1005E000002010BD003C024010B5014688B000223A
:1005F000372000F05DF8372000F04CF81348002455
:10060000016841F020010160006805A900F02000A8
:100610000690684600F018F900F036F90C490D4ACA
:10062000B0FBF1F10C48491E026040F2E732C0E92C
:100630000324C0E9011400F08BFB10B1012008B0C5
:1006400010BD054800F0A0FBF9E70000403802406B
:1006500040420F0000140040080300200C4882B004
:10066000016841F480410160006800F4804000901E
:100670000748001F016841F08051016000680022B6
:1006800000F0805000900F21901E02B000F010B8D2
:1006900044380240002809DB00F01F02012191408C
:1006A0004009800000F1E020C0F800117047000010
:1006B000F0B40E4B1B680C46C3F30223C3F10705CD
:1006C000042D00D90425191D072901D2002300E0BB
:1006D000DB1E012606FA05F1491E214099409E4085
:1006E000761E16403143F0BC00F037BF0CED00E041
:1006F000064900F0070208684FF6FF03184040EA79
:100700000220034A10430860704700000CED00E02F
:100710000000FA052DE9F0470E46050065D0DFF828
:100720001481D8F80000F7B200F00F00B04207D2F1
:1007300088F80070D8F8000000F00F00B04254D1E3
:1007400028683D4C810712D5400703D5206840F446
:10075000E05020602878000703D5206840F460400E
:1007600020602068A96820F0F00008432060287805
:10077000C0072DD0304968680839012812D00228F6
:1007800013D0032811D00968890700292DDA2168C0
:1007900021F0030101432160FFF7FEFE814641F293
:1007A000883A0EE009688903EFE709688901ECE7F8
:1007B000FFF7F2FEA0EB0901514502D90320BDE885
:1007C000F0872068696800F00C00B0EB810FEFD172
:1007D000D8F80010404601F00F01B14207D9077068
:1007E000006800F00F00B04201D00120E7E7287850
:1007F000400705D52068E96820F4E05008432060F0
:100800002878000706D52068296920F4604040EA6E
:10081000C100206000F048F82168084AC1F30311C4
:10082000515CC8400649086006480068FFF7DCFED6
:100830000020C4E7003C0240083802407420000851
:1008400010000020080000200F2202600C4A1368EC
:1008500003F003034360136803F0F003836013683D
:1008600003F4E053C36012684FF4E05303EAD2028A
:1008700002610448006800F00F0008607047000043
:1008800008380240003C02400448054900680968F5
:10089000044AC1F38221515CC84070471000002017
:1008A0000838024084200008154810B5006810F090
:1008B0000C02144813D01449042A0FD0082A0ED170
:1008C0000F4C241F2268236802F03F025B0207D509
:1008D0002068C0F38810A0FB010106E0084610BDA7
:1008E0002168C1F38811A1FB00010023FFF7DAFCA6
:1008F0002168C1F30141491C4900B0FBF1F010BD72
:10090000083802400024F40040787D012DE9F84FBA
:1009100004006ED02078DFF83C93C007A9F10405ED
:100920004AD009F104000168C1F38101012908D00E
:100930000068C0F3810002280AD1D9F80000400203
:1009400006D52868800337D560680028E1D033E0F9
:100950006068B0F5803F10D0B0F5A02F286810D0A7
:1009600020F480302860286820F4802028606068A7
:10097000A8B1FFF711FE06460DE0286840F480306C
:10098000F4E740F480202860F7E700BFFFF704FE9B
:10099000801B642873D828688003F7D50CE0FFF724
:1009A000FBFD064605E000BFFFF7F6FD801B64284F
:1009B000F0D828688003F7D42078DFF89C8280077D
:1009C0004FF0000A3ED5A348001D016811F00C0F3E
:1009D00008D00068C0F3810002280BD1D9F80000CC
:1009E000400207D42868800716D5E068012800D1A6
:1009F00012E02BE1E068B8B10120C8F80000FFF771
:100A0000CBFD064605E000BFFFF7C6FD801B0228B0
:100A1000C0D828688007F7D52868216920F0F80039
:100A200040EAC10028600DE0C8F800A0FFF7B4FD5F
:100A3000064604E0FFF7B0FD801B02281FD8286897
:100A40008007F7D42078000722D5824E8348616959
:100A5000703671B101210160FFF79EFD074604E089
:100A6000FFF79AFDC01B022809D830688007F7D528
:100A70000EE0C0F800A0FFF78FFD074605E082E01A
:100A8000FFF78AFDC01B02287DD830688007F7D4A5
:100A90002078400768D5DFF8BCB100270BF13C0B8C
:100AA000DBF80000C0000BD4DBF8001041F08051EF
:100AB000CBF80010DBF80000012700F08050009018
:100AC000674E3068C00510D4306840F480703060E4
:100AD000FFF762FD009005E0FFF75EFD0099401A08
:100AE000022850D83068C005F6D55A4EA0686C363A
:100AF00001280FD00528306810D020F001003060A8
:100B0000306820F004003060A068B8B1FFF744FD01
:100B100000900FE0306840F00100F4E740F004007E
:100B20003060F7E7FFF738FD0099411A41F288304D
:100B3000814266D830688007F4D50EE0FFF72CFDBF
:100B4000009007E0FFF728FD0099411A41F2883034
:100B5000814256D830688007F4D42FB1DBF80010FA
:100B600021F08051CBF80010A069C8B33949091DA4
:100B70000968C1F3810102294AD00228504607D0F2
:100B8000C8F8600000E03CE0FFF706FD04463BE0EB
:100B90004746C8F86000FFF7FFFC064605E000BFC7
:100BA000FFF7FAFC801B02282BD828688001F7D4B5
:100BB000D4E907010843A16A2A4A490802EB014126
:100BC000626A41EA8211084394F82C1040EA0161FC
:100BD000C9F8001001203866FFF7DEFC044606E085
:100BE00036E000BFFFF7D8FC001B022809D82868B0
:100BF0008001F7D52CE000BFFFF7CEFC001B0228D8
:100C000002D90320BDE8F88F28688001F4D41FE0E2
:100C10000128F7D0D9F80000E26900F48001914280
:100C200014D1226A00F03F0191420FD147F6C07102
:100C3000626A0140914209D1A26A00F440319142B6
:100C400004D1E16A00F07060884201D00120D9E748
:100C50000020D7E70438024000004742800E474298
:100C6000007000400000FFFF7047704710B590F81B
:100C70003C20012A22D0012280F83C20CA688C68DE
:100C800022F4407222434C6822F4806222430C68B2
:100C900022F4006222430C6922F4805222434C6900
:100CA00022F400522243C969002322F480420A43FD
:100CB00001684A6480F83C30002010BD022010BD5D
:100CC00070B590F83C20012A32D0012480F83C40D5
:100CD000022280F83D2003685A689D6822F0700661
:100CE0000A6832435A60134B02689A4214D0B2F138
:100CF000804F11D0104B9A420ED0104B9A420BD01D
:100D00000F4B9A4208D00F4B9A4205D00E4B9A4295
:100D100002D00E4B9A4204D1496825F08003194352
:100D2000916080F83D40002180F83C10084670BD7D
:100D3000022070BD00000140000400400008004097
:100D4000000C004000040140004001400018004039
:100D500010B5040003D094F83D0010B107E0012065
:100D600010BD002084F83C00204600F00CF8022062
:100D700084F83D00211D206800F0C8FA012084F8A5
:100D80003D00002010BD70470168CA6842F00102B2
:100D9000CA600068816801F00701062903D0016874
:100DA00041F00101016000207047704770B50446B2
:100DB000006801694FF00005C943890715D4C1686F
:100DC000C943890711D4E91E0161012020772068F9
:100DD00080698007204602D0FFF7E7FF04E000F0BB
:100DE000C3F8204600F062F9257720680169C943FD
:100DF000490717D4C168C943490713D46FF00401E8
:100E00000161022020772068806910F4407F20462D
:100E100002D0FFF7CAFF04E000F0A6F8204600F079
:100E200045F9257720680169C943090716D4C168C7
:100E3000C943090712D46FF008010161042020772B
:100E40002068C0698007204602D0FFF7AEFF04E0AB
:100E500000F08AF8204600F029F92577206801691A
:100E6000C943C90617D4C168C943C90613D46FF072
:100E700010010161082020772068C06910F4407FCC
:100E8000204602D0FFF791FF04E000F06DF8204605
:100E900000F00CF9257720680169C943C90708D11A
:100EA000C168C943C90704D1891E0161204600F009
:100EB000FFF820680169C943090609D4C168C9431C
:100EC000090605D46FF0800101612046FFF7CCFED2
:100ED00020680169C943490609D4C168C943490664
:100EE00005D46FF040010161204600F0EBF8206866
:100EF0000169C94389060BD4C168C943890607D46F
:100F00006FF0200101612046BDE87040FFF7ADBEE3
:100F100070BD000010B586B0044614216846FFF786
:100F20000BFA0E492068884216D10D48002102684C
:100F300042F010020260006800F0100005904FF4CB
:100F4000007000900220CDE901010120CDE90310DD
:100F500069460448FFF730FA06B010BD00000140B2
:100F60003038024000100240704770B5044690F8D7
:100F70003C000D4601280DD0012684F83C6002207B
:100F800084F83D0042B1042A18D0082A2AD00C2A3D
:100F90004DD139E0022070BD206800F01BFA2068B6
:100FA000816941F0080181612068816921F00401B3
:100FB0008161206881692A69114311E0206800F08D
:100FC00039FA2068816941F4006181612068816992
:100FD00021F480618161206881692A6941EA0221E6
:100FE000816124E0206800F05BFA2068C16941F06B
:100FF0000801C1612068C16921F00401C161206854
:10100000C1692A69114311E0206800F07DFA206867
:10101000C16941F40061C1612068C16921F4806146
:10102000C1612068C1692A6941EA0221C16184F86D
:101030003D60002084F83C0070BD10B5040003D072
:1010400094F83D0010B107E0012010BD002084F8A5
:101050003C00204600F00CF8022084F83D00211DE1
:10106000206800F053F9012084F83D00002010BDF5
:1010700008B500680B49884212D10B48016841F05D
:10108000010101600068002200F00100009011469B
:101090001820FFF70DFBBDE808401820FFF7FABA4B
:1010A00008BD0000000001404438024070470000C5
:1010B00000680349884201D1FFF774BA7047000005
:1010C000001400407047FEE700B587B01C220649B7
:1010D0006846FFF718F90021684600F07CFA0349DA
:1010E000086007B000BD0000582000080000002084
:1010F00030B587B014216846FFF71EF9194800245F
:10110000016841F080010160016801F080010591F2
:10111000016841F001010160016801F001010591E0
:10112000016841F01001016000680F4D00F01000EF
:101130000590002201212846FFF728FA012100919D
:10114000CDE90114694628460394FFF735F90220DA
:10115000CDE90004694628460294FFF72DF907B04F
:1011600030BD0000303802400000024010B592B09F
:1011700000240F941C2108A81094FFF7DDF820210B
:101180006846FFF7D9F821481F49016040F2AF4196
:10119000C0E9011442F20F71C0E903144461846193
:1011A000FFF74BFF08B1FFF705F90F940FA9174898
:1011B0001094FFF785FD08B1FFF7FCF86020089058
:1011C0003220CDE909040B940C940D94002208A957
:1011D0000E480E94FFF7C9FE08B1FFF7EBF8009434
:1011E0004FF40050CDE90440029401940394694601
:1011F00006480794FFF73AFD08B1FFF7DBF803480C
:10120000FFF788FE12B010BD00000140C8020020A8
:10121000FEE7FEE7012000F0D2F9FBE710B5502011
:1012200080F31188BFF34F8FBFF36F8F00F04EFE36
:1012300018B104494FF080500860002080F31188F5
:1012400010BD000004ED00E030B593B030216846D9
:10125000FFF772F814210CA8FFF76EF81C48002461
:10126000016841F080510160006800F080501190E9
:101270001848016821F4404141F480410160006850
:10128000022500F4404011900120039010200095A9
:1012900006950490CDE90740C020CDE9090504205A
:1012A0000B906846FFF732FB08B172B6FEE70F20DD
:1012B000CDE90C05A020CDE90E0400210CA8109466
:1012C000FFF728FA002801D072B6FEE713B030BD50
:1012D00040380240007000400548016841F4700148
:1012E000016003494FF000608039086070470000DA
:1012F00088ED00E00148FFF759BD0000C80200205A
:101300000148FFF753BD000008030020F0B5026854
:10131000254C264D264E274F274B4FF0804CA042A0
:1013200009D0604507D0A84205D0B04203D0B842EA
:1013300001D0984204D122F0700E4A6842EA0E02AF
:10134000A0421BD0604519D0A84217D0B04215D09A
:10135000B84213D0984211D0184DA8420ED0184D63
:10136000A8420BD0174DA84208D0174DA84205D06F
:10137000164DA84202D0164DA84203D122F4407562
:10138000CA682A434D6922F080022A4302608A68B3
:10139000C2620A688262A04201D0984201D1096902
:1013A000016301214161F0BD0000014000040040E3
:1013B00000080040000C00400004014000400140D3
:1013C000004401400048014000180040001C00405B
:1013D00000200040F0B5026A22F001020262036AB6
:1013E00042688469124E24F073050C682C4323F084
:1013F00002058B682B430D4DA84201D0B04205D1A8
:1014000023F00807CB683B4323F00403A84201D034
:10141000B04205D14D6922F4407215438A692A43CE
:1014200042608461496841630362F0BD000001408D
:1014300000040140F0B5026A22F010020262026A62
:10144000436884690D6824F4E64444EA05248D6801
:1014500022F0200242EA05120F4D104EA84201D0A0
:10146000B04206D1CF6822F0800242EA071222F091
:101470004002A84201D0B04207D14D6923F4406335
:1014800043EA85038D6943EA8503436084614968C3
:1014900081630262F0BD00000000014000040140D1
:1014A000F0B5026A22F480720262026A4368C4697B
:1014B00022F4007224F073050C68124E2C438D68E0
:1014C00042EA05220E4DA84201D0B04206D1CF68B3
:1014D00022F4006242EA072222F48062A84201D08C
:1014E000B04207D14D6923F4405343EA05138D6997
:1014F00043EA05134360C4614968C1630262F0BDF9
:10150000000001400004014030B5026A22F480521C
:101510000262046A4268C3690D6823F4E64343EA41
:1015200005238D6824F4005444EA0534084DA8428C
:1015300002D0084DA84204D14D6922F4804242EA0B
:1015400085124260C36149680164046230BD0000D5
:101550000000014000040140FEE70907090E0028D1
:1015600004DB00F1E02080F80014704700F00F0069
:1015700000F1E02080F8141D704702E008C8121F37
:1015800008C1002AFAD170477047002001E001C16C
:10159000121F002AFBD17047FFF70CF8FFF754FE2B
:1015A000FFF7A6FDFFF7E2FDFFF78EFD00F00EF856
:1015B000FEE701460020842900D0C81C704710B502
:1015C00000B9012000F01EFB002010BD10B500F096
:1015D0003FFB002010BD7FB50D4604464169B0F9C0
:1015E000080081B1A16971B1FFF7E3FFD4E90512E9
:1015F0008DE80700D4E900102B46226900F03BFC7F
:10160000039004B070BDFFF7D4FF03A9CDE900013A
:10161000208A2B4682B2D4E9001000F0FFFB01289B
:1016200001D00020EDE70398EBE700002DE9F04141
:10163000184C0F46054666692068001D00F01EFA2A
:1016400038B9206890F82C1001208840A1698143A6
:10165000A161681C07D137B12168BDE8F0410E488F
:10166000091D00F04FBA20683544B5424560216835
:1016700005D2A068BDE8F041091D00F02BBA6068F2
:10168000091D00F027FA206B854200D22563BDE8D2
:10169000F081000014000020240400202DE9F04116
:1016A000054600F03BFA2E4C2069401C2061206862
:1016B0002C4F10B1E06940B32DE02560206901286E
:1016C00029D1002606EB860007EB800000F0F4F934
:1016D000761C072EF6D323488C3000F0EDF9214814
:1016E000A03000F0E9F91F48B43000F0E5F91D48DA
:1016F000C83000F0E1F91B48DC3000F0DDF9194892
:101700008C3060601430A06005E02068E96AC06A2F
:10171000884200D82560E06A401CE062E96A012046
:10172000A26988401043A06101EB810007EB8000B3
:10173000291D00F0E7F900F011FAE06900280CD04B
:101740002068E96AC06A884207D207494FF0805092
:101750000860BFF34F8FBFF36F8FBDE8F0810000CB
:10176000140000204803002004ED00E010B50446FA
:1017700090F8510058B101280CD002280FD0502009
:1017800080F31188BFF34F8FBFF36F8FFEE7206B9D
:1017900000F0F8F92046BDE8104000F0F3B910BDA4
:1017A00010484FF47051420706D0C01D0D4920F07B
:1017B0000700411AC1F570510B4A00230144C2E9E8
:1017C00000030839103A21F0070111604B600B60EB
:1017D0000B1AC0E9001393604FF000405360D060D3
:1017E000704700003804002060000020144E154CA3
:1017F000A6F1C8074FF08058DFF84C9012E000BF08
:1018000000F08CF9F068C568281D00F037F92069F0
:10181000401E2061E068401EE06000F09FF928460D
:10182000FFF7A4FFE0680028EAD138680128F9D959
:10183000C9F80080BFF34F8FBFF36F8FF2E700004E
:10184000100400201400002004ED00E02DE9F04712
:101850009A46DDE9098481466FF00303206B03EBB0
:1018600082021044089E20F00707780707D0502016
:1018700080F31188BFF34F8FBFF36F8FFEE7002512
:1018800061B1002023180A5C83F834200A5C12B18D
:10189000401C1028F6D384F8435001E084F83450FB
:1018A000072E00D30626E662C4E91165201D00F06C
:1018B0000EF904F1180000F00AF92461C6F10700DE
:1018C0006462A061E56484F8505052464946384647
:1018D00000F0BEF82060B8F1000F01D0C8F8004059
:1018E000BDE8F08730B5114900E011460A68824230
:1018F000FBD34B685C18844203D1406818444860AD
:10190000084643681C18944209D1084C103C2468CE
:10191000A24209D052681A4442600A681268026002
:10192000814200D0086030BD0460F9E7600000200B
:1019300006484168096829B14168C968C9684968A9
:10194000016370474FF0FF31FAE7000014000020F8
:1019500008484068401C4FF0500080F3118804D0C4
:10196000BFF34F8FBFF36F8FFEE7BFF34F8FBFF310
:101970006F8FFEE7680000202DE9F0410546002743
:1019800000F09CF9314E306808B9FFF709FFF068A4
:1019900005424BD1C5B3083568070ED005F00700E6
:1019A000C0F108000544680707D0502080F3118873
:1019B000BFF34F8FBFF36F8FFEE72DB37068854283
:1019C00034D82248103001460C6801E020460C460D
:1019D0006168A94202D221680029F7D131688C429E
:1019E00024D007682168016060680837411B10290E
:1019F0000FD96019420708D0502080F31188BFF337
:101A00004F8FBFF36F8FFEE710E041606560FFF717
:101A100069FF61687068401A7060B268904200D2D5
:101A2000B060F06801430020C4E9000100F0B2FAA0
:101A3000780707D0502080F31188BFF34F8FBFF392
:101A40006F8FFEE73846BDE8F081000050000020AF
:101A500010B5031F4FF080741C601B1F21F00101A3
:101A60001960191F044B0B6014390A60091F6FF0CD
:101A7000020244380A6010BD51190008D0E9013251
:101A800001699A60D0E901235A604A68824201D113
:101A900082684A60002202610868401E0860086887
:101AA00070470000034B036003F15400086080207E
:101AB000106070477400002000F108014FF0FF3201
:101AC000C0E90112C160016100210160704700217D
:101AD0000161704730B50B685A1C02D000F1080252
:101AE00002E0026904E02246546825689D42FAD962
:101AF00053684B6099608A60516008610168491CB5
:101B0000016030BD42684A6093688B609368596099
:101B1000916008610168491C01607047502080F3A2
:101B20001188BFF34F8FBFF36F8F0A494868401C7D
:101B3000486001280CD10848006810F0FF0F07D05A
:101B4000502080F31188BFF34F8FBFF36F8FFEE7F4
:101B5000704700006800002004ED00E00849486874
:101B600028B1401E486001D180F311887047502091
:101B700080F31188BFF34F8FBFF36F8FFEE7000034
:101B80006800002070B5002827D0144DA0F108048B
:101B90006168E868014207D1502080F31188BFF3E3
:101BA0004F8FBFF36F8FFEE722683AB1502080F36A
:101BB0001188BFF34F8FBFF36F8FFEE781436160E2
:101BC00000F07CF860686968084468602046FFF7A8
:101BD00089FEBDE8704000F0DDB970BD5000002006
:101BE0004FF0E02000210161816105494FF47A72D4
:101BF0000968B1FBF2F1491E41610721016170479B
:101C00001000002010B5020014D00F48806B38B1CE
:101C1000502080F31188BFF34F8FBFF36F8FFEE723
:101C200000F04CF800211046FFF700FD00F0B2F97B
:101C3000002807D105494FF080500860BFF34F8F4F
:101C4000BFF36F8F10BD00001400002004ED00E012
:101C500010B586B00024039405AA04A903A804942F
:101C6000FFF720FFDDE903010094CDE90110002317
:101C70000EA11048059A00F0FEF80F4900284863AD
:101C800011D0502080F31188BFF34F8FBFF36F8FB7
:101C90004FF0FF3008630120C8614C6106B0BDE819
:101CA000104000F041B806B010BD000049444C455A
:101CB00000000000ED170008140000200248816BAE
:101CC000491C816370470000140000201448816B98
:101CD00011B1012141627047002141628169B1FA6D
:101CE00081F1C1F11F0101EB81020E4951F822304F
:101CF0006BB101EB820101F108034A6852684A6046
:101D00009A4201D152684A60D16801607047502000
:101D100080F31188BFF34F8FBFF36F8FFEE7000092
:101D200014000020480300201CB537480168374ADA
:101D3000914207D1502080F31188BFF34F8FBFF33A
:101D40006F8FFEE700683149491E884207D1502055
:101D500080F31188BFF34F8FBFF36F8FFEE72C49DD
:101D600008780190FF20087008788DF800009DF831
:101D700000009DF8002000F0F000904207D05020B5
:101D800080F31188BFF34F8FBFF36F8FFEE79DF88D
:101D90000000204B00F0500018700720986005E00C
:101DA0009DF8002052008DF80020401E9DF8002074
:101DB0001206F5D49860032807D0502080F31188CC
:101DC000BFF34F8FBFF36F8FFEE74FF44070986003
:101DD000019808700C482030016841F470010160DE
:101DE000016841F070410160FFF7FAFE0020586081
:101DF000FEF70AFA0848016841F040410160FEF729
:101E0000EFF900201CBD000000ED00E071C20F41A1
:101E100000E400E06800002034EF00E02DE9FF5FFF
:101E20008346DDE90E87994616468A469000FFF7FD
:101E3000A3FD05001CD05420FFF79EFD040014D024
:101E40000020256384F85100CDE90240CDE90087E8
:101E50004B46324651465846FFF7F8FC2046FFF7FE
:101E60001DFC012004B0BDE8F09F2846FFF78AFE64
:101E70004FF0FF30F6E7F0B585B0DDE90B640A9D61
:101E8000A6B1DCB1542700972663022684F851607E
:101E9000002604AFCDE90246CDE90057FFF7D6FC96
:101EA0002046FFF7FBFB049805B0F0BD502080F3FF
:101EB0001188BFF34F8FBFF36F8FFEE7502080F381
:101EC0001188BFF34F8FBFF36F8FFEE72DE9F0410D
:101ED0002E4C0027A06B40B1206A401C2062606A33
:101EE00000B101273846BDE8F0816669761C66615D
:101EF00013D16068006838B1502080F31188BFF3B7
:101F00004F8FBFF36F8FFEE76068A1686160A060CC
:101F1000A06A401CA062FFF70BFD206BDFF8708009
:101F2000864209D36068006880B16068C068C5688F
:101F3000686886420DD220632068C06A00EB800189
:101F400058F821000128CAD90127C8E74FF0FF300F
:101F5000F1E7281DFFF792FDA86A18B105F11800F6
:101F6000FFF78CFDE86A0121A26981401143A1615C
:101F700000EB800108EB8100291DFFF7C3FDE86A33
:101F80002168C96A8842CDD30127CBE7140000201D
:101F9000480300202DE9F0472C4D00242746A86B6C
:101FA00038B1FFF7BBFDA86B401EA863A86B40B11A
:101FB00046E0502080F31188BFF34F8FBFF36F8F3F
:101FC000FEE72969224E0120D1B3A6F1B40980466B
:101FD0003068E8B1F068C46804F11800FFF74EFDFE
:101FE000201DFFF74BFDE06AAA6908FA00F11143D2
:101FF000A96100EB800109EB8100211DFFF782FD43
:10200000E06A2968C96A8842E2D3C5F82480DFE71C
:102010000CB1FFF78DFC2C6A44B14646FFF756FF22
:1020200000B16E62641EF9D100202862686A38B17E
:102030000849012738070860BFF34F8FBFF36F8F40
:10204000FFF78CFD3846BDE8F08700001400002043
:10205000FC03002004ED00E08C20000815120008AD
:1020600000000000000000008000000000000000F0
:102070000000000000000000000000000102030456
:102080000607080900000000010203046465666198
:10209000756C745461736B00B82000080000002058
:1020A000740000007A1500082C210008740000203C
:1020B000C44300008A150008000000000100000071
:1020C00010000000000000000024F40000000000E8
:1020D0000000000000000000000000000000000000
:1020E00000000000000000000000000000000000F0
:1020F00000000000000000000000000000000000E0
:1021000000000000000000000000000000000000CF
:1021100000000000000000000000000000000000BF
:0C21200000000000AAAAAAAA000000000B
:04000005080001AD41
:00000001FF
